{
  "contractName": "ArtwookCoinCrowdsale",
  "abi": [
    {
      "constant": true,
      "inputs": [],
      "name": "beneficiary",
      "outputs": [
        {
          "name": "",
          "type": "address"
        }
      ],
      "payable": false,
      "stateMutability": "view",
      "type": "function"
    },
    {
      "constant": false,
      "inputs": [],
      "name": "unpause",
      "outputs": [],
      "payable": false,
      "stateMutability": "nonpayable",
      "type": "function"
    },
    {
      "constant": false,
      "inputs": [
        {
          "name": "_to",
          "type": "address"
        },
        {
          "name": "_value",
          "type": "uint256"
        }
      ],
      "name": "withdrawEther",
      "outputs": [
        {
          "name": "",
          "type": "bool"
        }
      ],
      "payable": false,
      "stateMutability": "nonpayable",
      "type": "function"
    },
    {
      "constant": true,
      "inputs": [],
      "name": "currentStep",
      "outputs": [
        {
          "name": "",
          "type": "uint8"
        }
      ],
      "payable": false,
      "stateMutability": "view",
      "type": "function"
    },
    {
      "constant": true,
      "inputs": [],
      "name": "paused",
      "outputs": [
        {
          "name": "",
          "type": "bool"
        }
      ],
      "payable": false,
      "stateMutability": "view",
      "type": "function"
    },
    {
      "constant": false,
      "inputs": [
        {
          "name": "_token",
          "type": "address"
        },
        {
          "name": "_to",
          "type": "address"
        },
        {
          "name": "_value",
          "type": "uint256"
        }
      ],
      "name": "withdrawTokens",
      "outputs": [
        {
          "name": "",
          "type": "bool"
        }
      ],
      "payable": false,
      "stateMutability": "nonpayable",
      "type": "function"
    },
    {
      "constant": true,
      "inputs": [],
      "name": "totalTokensForSale",
      "outputs": [
        {
          "name": "",
          "type": "uint256"
        }
      ],
      "payable": false,
      "stateMutability": "view",
      "type": "function"
    },
    {
      "constant": true,
      "inputs": [],
      "name": "totalTokensSold",
      "outputs": [
        {
          "name": "",
          "type": "uint256"
        }
      ],
      "payable": false,
      "stateMutability": "view",
      "type": "function"
    },
    {
      "constant": true,
      "inputs": [
        {
          "name": "",
          "type": "uint256"
        }
      ],
      "name": "steps",
      "outputs": [
        {
          "name": "priceTokenWei",
          "type": "uint256"
        },
        {
          "name": "minInvestEth",
          "type": "uint256"
        },
        {
          "name": "timestamp",
          "type": "uint256"
        },
        {
          "name": "tokensSold",
          "type": "uint256"
        },
        {
          "name": "collectedWei",
          "type": "uint256"
        },
        {
          "name": "transferBalance",
          "type": "bool"
        },
        {
          "name": "sale",
          "type": "bool"
        },
        {
          "name": "issue",
          "type": "bool"
        }
      ],
      "payable": false,
      "stateMutability": "view",
      "type": "function"
    },
    {
      "constant": false,
      "inputs": [],
      "name": "pause",
      "outputs": [],
      "payable": false,
      "stateMutability": "nonpayable",
      "type": "function"
    },
    {
      "constant": true,
      "inputs": [
        {
          "name": "",
          "type": "address"
        }
      ],
      "name": "canSell",
      "outputs": [
        {
          "name": "",
          "type": "uint256"
        }
      ],
      "payable": false,
      "stateMutability": "view",
      "type": "function"
    },
    {
      "constant": true,
      "inputs": [],
      "name": "owner",
      "outputs": [
        {
          "name": "",
          "type": "address"
        }
      ],
      "payable": false,
      "stateMutability": "view",
      "type": "function"
    },
    {
      "constant": true,
      "inputs": [],
      "name": "totalCollectedWei",
      "outputs": [
        {
          "name": "",
          "type": "uint256"
        }
      ],
      "payable": false,
      "stateMutability": "view",
      "type": "function"
    },
    {
      "constant": true,
      "inputs": [],
      "name": "crowdsaleClosed",
      "outputs": [
        {
          "name": "",
          "type": "bool"
        }
      ],
      "payable": false,
      "stateMutability": "view",
      "type": "function"
    },
    {
      "constant": false,
      "inputs": [
        {
          "name": "newOwner",
          "type": "address"
        }
      ],
      "name": "transferOwnership",
      "outputs": [],
      "payable": false,
      "stateMutability": "nonpayable",
      "type": "function"
    },
    {
      "constant": true,
      "inputs": [],
      "name": "token",
      "outputs": [
        {
          "name": "",
          "type": "address"
        }
      ],
      "payable": false,
      "stateMutability": "view",
      "type": "function"
    },
    {
      "payable": true,
      "stateMutability": "payable",
      "type": "fallback"
    },
    {
      "anonymous": false,
      "inputs": [
        {
          "indexed": true,
          "name": "holder",
          "type": "address"
        },
        {
          "indexed": false,
          "name": "tokenAmount",
          "type": "uint256"
        },
        {
          "indexed": false,
          "name": "etherAmount",
          "type": "uint256"
        }
      ],
      "name": "Purchase",
      "type": "event"
    },
    {
      "anonymous": false,
      "inputs": [
        {
          "indexed": true,
          "name": "holder",
          "type": "address"
        },
        {
          "indexed": false,
          "name": "tokenAmount",
          "type": "uint256"
        }
      ],
      "name": "Issue",
      "type": "event"
    },
    {
      "anonymous": false,
      "inputs": [
        {
          "indexed": true,
          "name": "holder",
          "type": "address"
        },
        {
          "indexed": false,
          "name": "tokenAmount",
          "type": "uint256"
        },
        {
          "indexed": false,
          "name": "etherAmount",
          "type": "uint256"
        }
      ],
      "name": "Sell",
      "type": "event"
    },
    {
      "anonymous": false,
      "inputs": [
        {
          "indexed": false,
          "name": "rate",
          "type": "uint256"
        }
      ],
      "name": "NewRate",
      "type": "event"
    },
    {
      "anonymous": false,
      "inputs": [
        {
          "indexed": false,
          "name": "step",
          "type": "uint8"
        }
      ],
      "name": "NextStep",
      "type": "event"
    },
    {
      "anonymous": false,
      "inputs": [],
      "name": "CrowdsaleClose",
      "type": "event"
    },
    {
      "anonymous": false,
      "inputs": [],
      "name": "Pause",
      "type": "event"
    },
    {
      "anonymous": false,
      "inputs": [],
      "name": "Unpause",
      "type": "event"
    },
    {
      "anonymous": false,
      "inputs": [
        {
          "indexed": true,
          "name": "previousOwner",
          "type": "address"
        },
        {
          "indexed": true,
          "name": "newOwner",
          "type": "address"
        }
      ],
      "name": "OwnershipTransferred",
      "type": "event"
    },
    {
      "constant": false,
      "inputs": [
        {
          "name": "akctoken",
          "type": "address"
        }
      ],
      "name": "Crowdsale",
      "outputs": [],
      "payable": false,
      "stateMutability": "nonpayable",
      "type": "function"
    },
    {
      "constant": false,
      "inputs": [
        {
          "name": "sender",
          "type": "address"
        }
      ],
      "name": "purchase",
      "outputs": [],
      "payable": true,
      "stateMutability": "payable",
      "type": "function"
    },
    {
      "constant": false,
      "inputs": [
        {
          "name": "_to",
          "type": "address"
        },
        {
          "name": "_value",
          "type": "uint256"
        }
      ],
      "name": "issue",
      "outputs": [],
      "payable": false,
      "stateMutability": "nonpayable",
      "type": "function"
    },
    {
      "constant": false,
      "inputs": [],
      "name": "closeCrowdsale",
      "outputs": [],
      "payable": false,
      "stateMutability": "nonpayable",
      "type": "function"
    }
  ],
  "bytecode": "0x608060405260008060146101000a81548160ff02191690831515021790555033600260006101000a81548173ffffffffffffffffffffffffffffffffffffffff021916908373ffffffffffffffffffffffffffffffffffffffff1602179055506000600460006101000a81548160ff021916908360ff160217905550600060055560006006556000600760006101000a81548160ff0219169083151502179055506000600855336000806101000a81548173ffffffffffffffffffffffffffffffffffffffff021916908373ffffffffffffffffffffffffffffffffffffffff160217905550611ee7806100f46000396000f300608060405260043610610112576000357c0100000000000000000000000000000000000000000000000000000000900463ffffffff16806325b31a971461011d57806338af3eed146101535780633f4ba83a146101aa578063522f6815146101c15780635bc34f71146102265780635c975abb146102575780635e35359e1461028657806360219c7b1461030b57806363b20117146103365780637217e0b9146103615780638456cb59146103df578063867904b4146103f657806386d4ff1d146104435780638da5cb5b1461049a578063983c0a01146104f1578063aac5ab6114610508578063c51d16b61461054b578063ccb07cef14610576578063f2fde38b146105a5578063fc0c546a146105e8575b61011b3361063f565b005b610151600480360381019080803573ffffffffffffffffffffffffffffffffffffffff16906020019092919050505061063f565b005b34801561015f57600080fd5b50610168610ce8565b604051808273ffffffffffffffffffffffffffffffffffffffff1673ffffffffffffffffffffffffffffffffffffffff16815260200191505060405180910390f35b3480156101b657600080fd5b506101bf610d0e565b005b3480156101cd57600080fd5b5061020c600480360381019080803573ffffffffffffffffffffffffffffffffffffffff16906020019092919080359060200190929190505050610dcc565b604051808215151515815260200191505060405180910390f35b34801561023257600080fd5b5061023b610edc565b604051808260ff1660ff16815260200191505060405180910390f35b34801561026357600080fd5b5061026c610eef565b604051808215151515815260200191505060405180910390f35b34801561029257600080fd5b506102f1600480360381019080803573ffffffffffffffffffffffffffffffffffffffff169060200190929190803573ffffffffffffffffffffffffffffffffffffffff16906020019092919080359060200190929190505050610f02565b604051808215151515815260200191505060405180910390f35b34801561031757600080fd5b50610320611082565b6040518082815260200191505060405180910390f35b34801561034257600080fd5b5061034b611088565b6040518082815260200191505060405180910390f35b34801561036d57600080fd5b5061038c6004803603810190808035906020019092919050505061108e565b604051808981526020018881526020018781526020018681526020018581526020018415151515815260200183151515158152602001821515151581526020019850505050505050505060405180910390f35b3480156103eb57600080fd5b506103f461110c565b005b34801561040257600080fd5b50610441600480360381019080803573ffffffffffffffffffffffffffffffffffffffff169060200190929190803590602001909291905050506111cc565b005b34801561044f57600080fd5b50610484600480360381019080803573ffffffffffffffffffffffffffffffffffffffff169060200190929190505050611566565b6040518082815260200191505060405180910390f35b3480156104a657600080fd5b506104af61157e565b604051808273ffffffffffffffffffffffffffffffffffffffff1673ffffffffffffffffffffffffffffffffffffffff16815260200191505060405180910390f35b3480156104fd57600080fd5b506105066115a3565b005b34801561051457600080fd5b50610549600480360381019080803573ffffffffffffffffffffffffffffffffffffffff1690602001909291905050506117da565b005b34801561055757600080fd5b50610560611c4e565b6040518082815260200191505060405180910390f35b34801561058257600080fd5b5061058b611c54565b604051808215151515815260200191505060405180910390f35b3480156105b157600080fd5b506105e6600480360381019080803573ffffffffffffffffffffffffffffffffffffffff169060200190929190505050611c67565b005b3480156105f457600080fd5b506105fd611dbc565b604051808273ffffffffffffffffffffffffffffffffffffffff1673ffffffffffffffffffffffffffffffffffffffff16815260200191505060405180910390f35b610647611e6f565b600080600080600060149054906101000a900460ff1615151561066957600080fd5b600760009054906101000a900460ff1615151561068557600080fd5b6003600081548110151561069557fe5b906000526020600020906006020160020154421115156106b457600080fd5b600360018154811015156106c457fe5b906000526020600020906006020160020154421180156106f657506001600460009054906101000a900460ff1660ff16105b15610764576001600460006101000a81548160ff021916908360ff1602179055507f4d3cfbcd7da61e25bfda6ef2a73e71b189eb3a19824d4b3dda53e85d307a5005600460009054906101000a900460ff16604051808260ff1660ff16815260200191505060405180910390a15b6003600281548110151561077457fe5b906000526020600020906006020160020154421180156107a657506002600460009054906101000a900460ff1660ff16105b15610814576002600460006101000a81548160ff021916908360ff1602179055507f4d3cfbcd7da61e25bfda6ef2a73e71b189eb3a19824d4b3dda53e85d307a5005600460009054906101000a900460ff16604051808260ff1660ff16815260200191505060405180910390a15b6003600460009054906101000a900460ff1660ff1681548110151561083557fe5b9060005260206000209060060201610100604051908101604052908160008201548152602001600182015481526020016002820154815260200160038201548152602001600482015481526020016005820160009054906101000a900460ff161515151581526020016005820160019054906101000a900460ff161515151581526020016005820160029054906101000a900460ff1615151515815250509450846020015134101515156108e857600080fd5b6008546005541015156108fa57600080fd5b34935061092e8560000151610920670de0b6b3a764000087611de290919063ffffffff16565b611e1d90919063ffffffff16565b92506000915060085461094c84600554611e3890919063ffffffff16565b11156109db5761097b60085461096d85600554611e3890919063ffffffff16565b611e5690919063ffffffff16565b90506109ae670de0b6b3a76400006109a0876000015184611de290919063ffffffff16565b611e1d90919063ffffffff16565b91506109c38184611e5690919063ffffffff16565b92506109d88285611e5690919063ffffffff16565b93505b6109f083600554611e3890919063ffffffff16565b600581905550610a0b84600654611e3890919063ffffffff16565b600681905550610a28838660600151611e3890919063ffffffff16565b6003600460009054906101000a900460ff1660ff16815481101515610a4957fe5b906000526020600020906006020160030181905550610a75848660800151611e3890919063ffffffff16565b6003600460009054906101000a900460ff1660ff16815481101515610a9657fe5b9060005260206000209060060201600401819055506000600460009054906101000a900460ff1660ff161415610b5c57610b1883600960008973ffffffffffffffffffffffffffffffffffffffff1673ffffffffffffffffffffffffffffffffffffffff16815260200190815260200160002054611e3890919063ffffffff16565b600960008873ffffffffffffffffffffffffffffffffffffffff1673ffffffffffffffffffffffffffffffffffffffff168152602001908152602001600020819055505b600160009054906101000a900473ffffffffffffffffffffffffffffffffffffffff1673ffffffffffffffffffffffffffffffffffffffff166340c10f1987856040518363ffffffff167c0100000000000000000000000000000000000000000000000000000000028152600401808373ffffffffffffffffffffffffffffffffffffffff1673ffffffffffffffffffffffffffffffffffffffff16815260200182815260200192505050600060405180830381600087803b158015610c2157600080fd5b505af1158015610c35573d6000803e3d6000fd5b505050506000821115610c8a578573ffffffffffffffffffffffffffffffffffffffff166108fc839081150290604051600060405180830381858888f19350505050158015610c88573d6000803e3d6000fd5b505b8573ffffffffffffffffffffffffffffffffffffffff167f12cb4648cf3058b17ceeb33e579f8b0bc269fe0843f3900b8e24b6c54871703c8486604051808381526020018281526020019250505060405180910390a2505050505050565b600260009054906101000a900473ffffffffffffffffffffffffffffffffffffffff1681565b6000809054906101000a900473ffffffffffffffffffffffffffffffffffffffff1673ffffffffffffffffffffffffffffffffffffffff163373ffffffffffffffffffffffffffffffffffffffff16141515610d6957600080fd5b600060149054906101000a900460ff161515610d8457600080fd5b60008060146101000a81548160ff0219169083151502179055507f7805862f689e2f13df9f062ff482ad3ad112aca9e0847911ed832e158c525b3360405160405180910390a1565b60008060009054906101000a900473ffffffffffffffffffffffffffffffffffffffff1673ffffffffffffffffffffffffffffffffffffffff163373ffffffffffffffffffffffffffffffffffffffff16141515610e2957600080fd5b600073ffffffffffffffffffffffffffffffffffffffff168373ffffffffffffffffffffffffffffffffffffffff1614151515610e6557600080fd5b813073ffffffffffffffffffffffffffffffffffffffff163110151515610e8b57600080fd5b8273ffffffffffffffffffffffffffffffffffffffff166108fc839081150290604051600060405180830381858888f19350505050158015610ed1573d6000803e3d6000fd5b506001905092915050565b600460009054906101000a900460ff1681565b600060149054906101000a900460ff1681565b60008060009054906101000a900473ffffffffffffffffffffffffffffffffffffffff1673ffffffffffffffffffffffffffffffffffffffff163373ffffffffffffffffffffffffffffffffffffffff16141515610f5f57600080fd5b600073ffffffffffffffffffffffffffffffffffffffff168373ffffffffffffffffffffffffffffffffffffffff1614151515610f9b57600080fd5b8373ffffffffffffffffffffffffffffffffffffffff1663a9059cbb84846040518363ffffffff167c0100000000000000000000000000000000000000000000000000000000028152600401808373ffffffffffffffffffffffffffffffffffffffff1673ffffffffffffffffffffffffffffffffffffffff16815260200182815260200192505050602060405180830381600087803b15801561103e57600080fd5b505af1158015611052573d6000803e3d6000fd5b505050506040513d602081101561106857600080fd5b810190808051906020019092919050505090509392505050565b60085481565b60055481565b60038181548110151561109d57fe5b90600052602060002090600602016000915090508060000154908060010154908060020154908060030154908060040154908060050160009054906101000a900460ff16908060050160019054906101000a900460ff16908060050160029054906101000a900460ff16905088565b6000809054906101000a900473ffffffffffffffffffffffffffffffffffffffff1673ffffffffffffffffffffffffffffffffffffffff163373ffffffffffffffffffffffffffffffffffffffff1614151561116757600080fd5b600060149054906101000a900460ff1615151561118357600080fd5b6001600060146101000a81548160ff0219169083151502179055507f6985a02210a168e66602d3235cb6db0e70f92b3ba4d376a33c0f3d9434bff62560405160405180910390a1565b6111d4611e6f565b6000809054906101000a900473ffffffffffffffffffffffffffffffffffffffff1673ffffffffffffffffffffffffffffffffffffffff163373ffffffffffffffffffffffffffffffffffffffff1614151561122f57600080fd5b600060149054906101000a900460ff1615151561124b57600080fd5b600760009054906101000a900460ff1615151561126757600080fd5b6003600460009054906101000a900460ff1660ff1681548110151561128857fe5b9060005260206000209060060201610100604051908101604052908160008201548152602001600182015481526020016002820154815260200160038201548152602001600482015481526020016005820160009054906101000a900460ff161515151581526020016005820160019054906101000a900460ff161515151581526020016005820160029054906101000a900460ff16151515158152505090508060e00151151561133857600080fd5b61134f828260600151611e3890919063ffffffff16565b6003600460009054906101000a900460ff1660ff1681548110151561137057fe5b9060005260206000209060060201600301819055506000600460009054906101000a900460ff1660ff161415611436576113f282600960008673ffffffffffffffffffffffffffffffffffffffff1673ffffffffffffffffffffffffffffffffffffffff16815260200190815260200160002054611e3890919063ffffffff16565b600960008573ffffffffffffffffffffffffffffffffffffffff1673ffffffffffffffffffffffffffffffffffffffff168152602001908152602001600020819055505b600160009054906101000a900473ffffffffffffffffffffffffffffffffffffffff1673ffffffffffffffffffffffffffffffffffffffff166340c10f1984846040518363ffffffff167c0100000000000000000000000000000000000000000000000000000000028152600401808373ffffffffffffffffffffffffffffffffffffffff1673ffffffffffffffffffffffffffffffffffffffff16815260200182815260200192505050600060405180830381600087803b1580156114fb57600080fd5b505af115801561150f573d6000803e3d6000fd5b505050508273ffffffffffffffffffffffffffffffffffffffff167fc65a3f767206d2fdcede0b094a4840e01c0dd0be1888b5ba800346eaa0123c16836040518082815260200191505060405180910390a2505050565b60096020528060005260406000206000915090505481565b6000809054906101000a900473ffffffffffffffffffffffffffffffffffffffff1681565b6000809054906101000a900473ffffffffffffffffffffffffffffffffffffffff1673ffffffffffffffffffffffffffffffffffffffff163373ffffffffffffffffffffffffffffffffffffffff161415156115fe57600080fd5b600760009054906101000a900460ff1615151561161a57600080fd5b600260009054906101000a900473ffffffffffffffffffffffffffffffffffffffff1673ffffffffffffffffffffffffffffffffffffffff166108fc3073ffffffffffffffffffffffffffffffffffffffff16319081150290604051600060405180830381858888f19350505050158015611699573d6000803e3d6000fd5b50600160009054906101000a900473ffffffffffffffffffffffffffffffffffffffff1673ffffffffffffffffffffffffffffffffffffffff166313af4035600260009054906101000a900473ffffffffffffffffffffffffffffffffffffffff166040518263ffffffff167c0100000000000000000000000000000000000000000000000000000000028152600401808273ffffffffffffffffffffffffffffffffffffffff1673ffffffffffffffffffffffffffffffffffffffff168152602001915050600060405180830381600087803b15801561177957600080fd5b505af115801561178d573d6000803e3d6000fd5b505050506001600760006101000a81548160ff0219169083151502179055507f587261db95996a4ec51ca62d662d1f046a5e62831eb4ae0b8cd974da5673fbf060405160405180910390a1565b60008073ffffffffffffffffffffffffffffffffffffffff16600160009054906101000a900473ffffffffffffffffffffffffffffffffffffffff1673ffffffffffffffffffffffffffffffffffffffff1614151561183857600080fd5b81600160006101000a81548173ffffffffffffffffffffffffffffffffffffffff021916908373ffffffffffffffffffffffffffffffffffffffff1602179055506a52b7d2dcc80cd2e4000000600881905550670de0b6b3a764000090506003610100604051908101604052806118cf605a6118c1631dcd650087611e1d90919063ffffffff16565b611de290919063ffffffff16565b8152602001662386f26fc100008152602001635ad7ff28815260200160008152602001600081526020016001151581526020016000151581526020016001151581525090806001815401808255809150509060018203906000526020600020906006020160009091929091909150600082015181600001556020820151816001015560408201518160020155606082015181600301556080820151816004015560a08201518160050160006101000a81548160ff02191690831515021790555060c08201518160050160016101000a81548160ff02191690831515021790555060e08201518160050160026101000a81548160ff021916908315150217905550505050600361010060405190810160405280611a0b605f6119fd631dcd650087611e1d90919063ffffffff16565b611de290919063ffffffff16565b8152602001662386f26fc100008152602001635ad7ffa0815260200160008152602001600081526020016001151581526020016000151581526020016001151581525090806001815401808255809150509060018203906000526020600020906006020160009091929091909150600082015181600001556020820151816001015560408201518160020155606082015181600301556080820151816004015560a08201518160050160006101000a81548160ff02191690831515021790555060c08201518160050160016101000a81548160ff02191690831515021790555060e08201518160050160026101000a81548160ff021916908315150217905550505050600361010060405190810160405280611b476064611b39631dcd650087611e1d90919063ffffffff16565b611de290919063ffffffff16565b8152602001662386f26fc100008152602001635ad80054815260200160008152602001600081526020016001151581526020016000151581526020016001151581525090806001815401808255809150509060018203906000526020600020906006020160009091929091909150600082015181600001556020820151816001015560408201518160020155606082015181600301556080820151816004015560a08201518160050160006101000a81548160ff02191690831515021790555060c08201518160050160016101000a81548160ff02191690831515021790555060e08201518160050160026101000a81548160ff0219169083151502179055505050505050565b60065481565b600760009054906101000a900460ff1681565b6000809054906101000a900473ffffffffffffffffffffffffffffffffffffffff1673ffffffffffffffffffffffffffffffffffffffff163373ffffffffffffffffffffffffffffffffffffffff16141515611cc257600080fd5b600073ffffffffffffffffffffffffffffffffffffffff168173ffffffffffffffffffffffffffffffffffffffff1614151515611cfe57600080fd5b806000806101000a81548173ffffffffffffffffffffffffffffffffffffffff021916908373ffffffffffffffffffffffffffffffffffffffff1602179055508073ffffffffffffffffffffffffffffffffffffffff166000809054906101000a900473ffffffffffffffffffffffffffffffffffffffff1673ffffffffffffffffffffffffffffffffffffffff167f8be0079c531659141344cd1fd0a4f28419497f9722a3daafe3b4186f6b6457e060405160405180910390a350565b600160009054906101000a900473ffffffffffffffffffffffffffffffffffffffff1681565b6000806000841415611df75760009150611e16565b8284029050828482811515611e0857fe5b04141515611e1257fe5b8091505b5092915050565b6000808284811515611e2b57fe5b0490508091505092915050565b6000808284019050838110151515611e4c57fe5b8091505092915050565b6000828211151515611e6457fe5b818303905092915050565b61010060405190810160405280600081526020016000815260200160008152602001600081526020016000815260200160001515815260200160001515815260200160001515815250905600a165627a7a723058202d93a07d66d3576adc888c19274ca19b652c16194619cf20050b3929050a770f0029",
  "source": "pragma solidity ^0.4.20;\n\nimport './AKC.sol';\n\nlibrary SafeMath {\n  function mul(uint256 a, uint256 b) internal pure returns (uint256) {\n    if (a == 0) {\n      return 0;\n    }\n    uint256 c = a * b;\n    assert(c / a == b);\n    return c;\n  }\n\n  function div(uint256 a, uint256 b) internal pure returns (uint256) {\n    uint256 c = a / b;\n    return c;\n  }\n\n  function sub(uint256 a, uint256 b) internal pure returns (uint256) {\n    assert(b <= a);\n    return a - b;\n  }\n\n  function add(uint256 a, uint256 b) internal pure returns (uint256) {\n    uint256 c = a + b;\n    assert(c >= a);\n    return c;\n  }\n}\n\ncontract Ownable {\n  address public owner;\n\n  event OwnershipTransferred(address indexed previousOwner, address indexed newOwner);\n\n  function Ownable() public {\n    owner = msg.sender;\n  }\n\n  modifier onlyOwner() {\n    require(msg.sender == owner);\n    _;\n  }\n\n  function transferOwnership(address newOwner) public onlyOwner {\n    require(newOwner != address(0));\n    owner = newOwner;\n    emit OwnershipTransferred(owner, newOwner);\n  }\n\n}\n\ncontract Pausable is Ownable {\n    bool public paused = false;\n\n    event Pause();\n    event Unpause();\n\n    modifier whenNotPaused() { require(!paused); _; }\n    modifier whenPaused() { require(paused); _; }\n\n    function pause() onlyOwner whenNotPaused public {\n        paused = true;\n        emit Pause();\n    }\n\n    function unpause() onlyOwner whenPaused public {\n        paused = false;\n        emit Unpause();\n    }\n}\n\ncontract Withdrawable is Ownable {\n    function withdrawEther(address _to, uint _value) onlyOwner public returns(bool) {\n        require(_to != address(0));\n        require(address(this).balance >= _value);\n\n        _to.transfer(_value);\n\n        return true;\n    }\n\n    function withdrawTokens(ERC20 _token, address _to, uint _value) onlyOwner public returns(bool) {\n        require(_to != address(0));\n\n        return _token.transfer(_to, _value);\n    }\n}\n\ncontract ArtwookCoinCrowdsale is Pausable, Withdrawable {\n  using SafeMath for uint;\n\n  struct Step {\n      uint priceTokenWei;\n      uint minInvestEth;\n      uint timestamp;\n      uint tokensSold;\n      uint collectedWei;\n\n      bool transferBalance;\n      bool sale;\n      bool issue;\n  }\n  AKC public token;\n  address public beneficiary = msg.sender;\n\n  Step[] public steps;\n  uint8 public currentStep = 0;\n  uint public totalTokensSold = 0;\n  uint public totalCollectedWei = 0;\n  bool public crowdsaleClosed = false;\n  uint public totalTokensForSale = 0;\n\n  mapping(address => uint256) public canSell;\n\n  event Purchase(address indexed holder, uint256 tokenAmount, uint256 etherAmount);\n  event Issue(address indexed holder, uint256 tokenAmount);\n  event Sell(address indexed holder, uint256 tokenAmount, uint256 etherAmount);\n  event NewRate(uint256 rate);\n  event NextStep(uint8 step);\n  event CrowdsaleClose();\n\n  function Crowdsale(AKC akctoken) public {\n      require(token==address(0));\n      /* token = new AKC(); */\n      token = akctoken;\n      // crowdsale only sale 50% of totalSupply\n      totalTokensForSale = 100000000 * 10 ** 18;\n      uint num1 = 1 ether;\n      steps.push(Step(num1.div(5000000*100).mul(90), 0.01 ether, 1524105000, 0, 0, true, false, true));\n      steps.push(Step(num1.div(5000000*100).mul(95), 0.01 ether, 1524105120, 0, 0, true, false, true));\n      steps.push(Step(num1.div(5000000*100).mul(100), 0.01 ether, 1524105300, 0, 0, true, false, true));\n  }\n\n  // Fallback function to purchase tokens\n  function() external payable  {\n      purchase(msg.sender);\n  }\n\n  function purchase(address sender) whenNotPaused payable public {\n      require(!crowdsaleClosed);\n      require(now>steps[0].timestamp);\n\n      if (now > steps[1].timestamp && currentStep < 1){\n        currentStep = 1;\n        emit NextStep(currentStep);\n      }\n      if (now > steps[2].timestamp && currentStep < 2){\n        currentStep = 2;\n        emit NextStep(currentStep);\n      }\n      Step memory step = steps[currentStep];\n\n      require(msg.value >= step.minInvestEth);\n\n      require(totalTokensSold < totalTokensForSale);\n\n      uint sum = msg.value;\n      uint amount = sum.mul(1 ether).div(step.priceTokenWei);\n      uint retSum = 0;\n\n      if(totalTokensSold.add(amount) > totalTokensForSale) {\n          uint retAmount = totalTokensSold.add(amount).sub(totalTokensForSale);\n          retSum = retAmount.mul(step.priceTokenWei).div(1 ether);\n\n          amount = amount.sub(retAmount);\n          sum = sum.sub(retSum);\n      }\n\n      totalTokensSold = totalTokensSold.add(amount);\n      totalCollectedWei = totalCollectedWei.add(sum);\n      steps[currentStep].tokensSold = step.tokensSold.add(amount);\n      steps[currentStep].collectedWei = step.collectedWei.add(sum);\n\n      if(currentStep == 0) {\n          canSell[sender] = canSell[sender].add(amount);\n      }\n\n      token.mint(sender, amount);\n\n      if(retSum > 0) {\n          sender.transfer(retSum);\n      }\n\n      emit Purchase(sender, amount, sum);\n  }\n\n  function issue(address _to, uint256 _value) onlyOwner whenNotPaused public {\n      require(!crowdsaleClosed);\n\n      Step memory step = steps[currentStep];\n\n      require(step.issue);\n      /* require(step.tokensSold.add(_value) <= step.tokensForSale); */\n\n      steps[currentStep].tokensSold = step.tokensSold.add(_value);\n\n      if(currentStep == 0) {\n          canSell[_to] = canSell[_to].add(_value);\n      }\n\n      token.mint(_to, _value);\n\n      emit Issue(_to, _value);\n  }\n\n  function closeCrowdsale() onlyOwner public {\n      require(!crowdsaleClosed);\n\n      beneficiary.transfer(address(this).balance);\n      /* token.mint(beneficiary, token.cap().sub(token.totalSupply())); */\n      /* token.finishMinting(); */\n      /* token.transferOwnership(beneficiary); */\n      /* token.changeController(beneficiary); */\n      token.setOwner(beneficiary);\n\n      crowdsaleClosed = true;\n\n      emit CrowdsaleClose();\n  }\n}\n",
  "sourcePath": "/Users/mark/site/www.artwook.com/contracts/contracts/Crowdsale.sol",
  "compiler": {
    "name": "solc",
    "version": "0.4.24+commit.e67f0147.Emscripten.clang"
  },
  "schemaVersion": "2.0.0",
  "updatedAt": "2018-05-30T06:48:48.504Z"
}