{
  "contractName": "CrowdsaleArtwookToken",
  "abi": [
    {
      "constant": true,
      "inputs": [],
      "name": "name",
      "outputs": [
        {
          "name": "",
          "type": "string"
        }
      ],
      "payable": false,
      "stateMutability": "view",
      "type": "function"
    },
    {
      "constant": false,
      "inputs": [
        {
          "name": "_spender",
          "type": "address"
        },
        {
          "name": "_value",
          "type": "uint256"
        }
      ],
      "name": "approve",
      "outputs": [
        {
          "name": "",
          "type": "bool"
        }
      ],
      "payable": false,
      "stateMutability": "nonpayable",
      "type": "function"
    },
    {
      "constant": true,
      "inputs": [],
      "name": "totalSupply",
      "outputs": [
        {
          "name": "",
          "type": "uint256"
        }
      ],
      "payable": false,
      "stateMutability": "view",
      "type": "function"
    },
    {
      "constant": false,
      "inputs": [
        {
          "name": "_from",
          "type": "address"
        },
        {
          "name": "_to",
          "type": "address"
        },
        {
          "name": "_value",
          "type": "uint256"
        }
      ],
      "name": "transferFrom",
      "outputs": [
        {
          "name": "",
          "type": "bool"
        }
      ],
      "payable": false,
      "stateMutability": "nonpayable",
      "type": "function"
    },
    {
      "constant": true,
      "inputs": [],
      "name": "decimals",
      "outputs": [
        {
          "name": "",
          "type": "uint256"
        }
      ],
      "payable": false,
      "stateMutability": "view",
      "type": "function"
    },
    {
      "constant": false,
      "inputs": [
        {
          "name": "_to",
          "type": "address"
        },
        {
          "name": "_amount",
          "type": "uint256"
        }
      ],
      "name": "mintByOwner",
      "outputs": [
        {
          "name": "",
          "type": "bool"
        }
      ],
      "payable": false,
      "stateMutability": "nonpayable",
      "type": "function"
    },
    {
      "constant": true,
      "inputs": [],
      "name": "initialExchangeRate",
      "outputs": [
        {
          "name": "",
          "type": "uint256"
        }
      ],
      "payable": false,
      "stateMutability": "view",
      "type": "function"
    },
    {
      "constant": true,
      "inputs": [
        {
          "name": "_owner",
          "type": "address"
        }
      ],
      "name": "balanceOf",
      "outputs": [
        {
          "name": "balance",
          "type": "uint256"
        }
      ],
      "payable": false,
      "stateMutability": "view",
      "type": "function"
    },
    {
      "constant": true,
      "inputs": [],
      "name": "nativeDecimals",
      "outputs": [
        {
          "name": "",
          "type": "uint256"
        }
      ],
      "payable": false,
      "stateMutability": "view",
      "type": "function"
    },
    {
      "constant": true,
      "inputs": [],
      "name": "saleAmount",
      "outputs": [
        {
          "name": "",
          "type": "uint256"
        }
      ],
      "payable": false,
      "stateMutability": "view",
      "type": "function"
    },
    {
      "constant": true,
      "inputs": [],
      "name": "owner",
      "outputs": [
        {
          "name": "",
          "type": "address"
        }
      ],
      "payable": false,
      "stateMutability": "view",
      "type": "function"
    },
    {
      "constant": true,
      "inputs": [],
      "name": "fundingEndBlock",
      "outputs": [
        {
          "name": "",
          "type": "uint256"
        }
      ],
      "payable": false,
      "stateMutability": "view",
      "type": "function"
    },
    {
      "constant": true,
      "inputs": [],
      "name": "symbol",
      "outputs": [
        {
          "name": "",
          "type": "string"
        }
      ],
      "payable": false,
      "stateMutability": "view",
      "type": "function"
    },
    {
      "constant": false,
      "inputs": [
        {
          "name": "_to",
          "type": "address"
        },
        {
          "name": "_value",
          "type": "uint256"
        }
      ],
      "name": "transfer",
      "outputs": [
        {
          "name": "",
          "type": "bool"
        }
      ],
      "payable": false,
      "stateMutability": "nonpayable",
      "type": "function"
    },
    {
      "constant": true,
      "inputs": [],
      "name": "fundingStartBlock",
      "outputs": [
        {
          "name": "",
          "type": "uint256"
        }
      ],
      "payable": false,
      "stateMutability": "view",
      "type": "function"
    },
    {
      "constant": true,
      "inputs": [
        {
          "name": "_owner",
          "type": "address"
        },
        {
          "name": "_spender",
          "type": "address"
        }
      ],
      "name": "allowance",
      "outputs": [
        {
          "name": "remaining",
          "type": "uint256"
        }
      ],
      "payable": false,
      "stateMutability": "view",
      "type": "function"
    },
    {
      "constant": false,
      "inputs": [
        {
          "name": "newOwner",
          "type": "address"
        }
      ],
      "name": "transferOwnership",
      "outputs": [],
      "payable": false,
      "stateMutability": "nonpayable",
      "type": "function"
    },
    {
      "constant": true,
      "inputs": [],
      "name": "tokenTotalSupply",
      "outputs": [
        {
          "name": "",
          "type": "uint256"
        }
      ],
      "payable": false,
      "stateMutability": "view",
      "type": "function"
    },
    {
      "inputs": [
        {
          "name": "_fundingStartBlock",
          "type": "uint256"
        },
        {
          "name": "_fundingEndBlock",
          "type": "uint256"
        },
        {
          "name": "_initialExchangeRate",
          "type": "uint256"
        },
        {
          "name": "_presaleAmount",
          "type": "uint256"
        }
      ],
      "payable": false,
      "stateMutability": "nonpayable",
      "type": "constructor"
    },
    {
      "payable": true,
      "stateMutability": "payable",
      "type": "fallback"
    },
    {
      "anonymous": false,
      "inputs": [
        {
          "indexed": true,
          "name": "purchaser",
          "type": "address"
        },
        {
          "indexed": true,
          "name": "beneficiary",
          "type": "address"
        },
        {
          "indexed": false,
          "name": "value",
          "type": "uint256"
        },
        {
          "indexed": false,
          "name": "amount",
          "type": "uint256"
        }
      ],
      "name": "TokenPurchase",
      "type": "event"
    },
    {
      "anonymous": false,
      "inputs": [
        {
          "indexed": false,
          "name": "supply",
          "type": "uint256"
        },
        {
          "indexed": true,
          "name": "to",
          "type": "address"
        },
        {
          "indexed": false,
          "name": "amount",
          "type": "uint256"
        }
      ],
      "name": "Mint",
      "type": "event"
    },
    {
      "anonymous": false,
      "inputs": [
        {
          "indexed": true,
          "name": "_owner",
          "type": "address"
        },
        {
          "indexed": true,
          "name": "_spender",
          "type": "address"
        },
        {
          "indexed": false,
          "name": "_value",
          "type": "uint256"
        }
      ],
      "name": "Approval",
      "type": "event"
    },
    {
      "anonymous": false,
      "inputs": [
        {
          "indexed": true,
          "name": "_from",
          "type": "address"
        },
        {
          "indexed": true,
          "name": "_to",
          "type": "address"
        },
        {
          "indexed": false,
          "name": "_value",
          "type": "uint256"
        }
      ],
      "name": "Transfer",
      "type": "event"
    },
    {
      "constant": false,
      "inputs": [
        {
          "name": "_beneficiary",
          "type": "address"
        }
      ],
      "name": "buyTokens",
      "outputs": [],
      "payable": true,
      "stateMutability": "payable",
      "type": "function"
    },
    {
      "constant": true,
      "inputs": [
        {
          "name": "_weiAmount",
          "type": "uint256"
        },
        {
          "name": "_exchangeRate",
          "type": "uint256"
        },
        {
          "name": "_nativeDecimals",
          "type": "uint256"
        },
        {
          "name": "_decimals",
          "type": "uint256"
        }
      ],
      "name": "getTokenExchangeAmount",
      "outputs": [
        {
          "name": "",
          "type": "uint256"
        }
      ],
      "payable": false,
      "stateMutability": "pure",
      "type": "function"
    }
  ],
  "bytecode": "0x606060405234156200001057600080fd5b6040516080806200174e83398101604052808051906020019091908051906020019091908051906020019091908051906020019091905050600033600360006101000a81548173ffffffffffffffffffffffffffffffffffffffff021916908373ffffffffffffffffffffffffffffffffffffffff1602179055504385101515156200009b57600080fd5b848410151515620000ab57600080fd5b600083111515620000bb57600080fd5b6008600a0a820290506008600a0a6305f5e100028111151515620000de57600080fd5b6008601210151515620000ed57fe5b84600481905550836005819055508260068190555062000144600360009054906101000a900473ffffffffffffffffffffffffffffffffffffffff1682620001506401000000000262000d14176401000000009004565b50505050505062000351565b6000600360009054906101000a900473ffffffffffffffffffffffffffffffffffffffff1673ffffffffffffffffffffffffffffffffffffffff163373ffffffffffffffffffffffffffffffffffffffff16141515620001af57600080fd5b620001cf8383620001d76401000000000262001239176401000000009004565b905092915050565b600080620001ff836000546200033264010000000002620011ee179091906401000000009004565b90506008600a0a630bebc2000281111515156200021b57600080fd5b8260008082825401925050819055506200028c83600160008773ffffffffffffffffffffffffffffffffffffffff1673ffffffffffffffffffffffffffffffffffffffff168152602001908152602001600020546200033264010000000002620011ee179091906401000000009004565b600160008673ffffffffffffffffffffffffffffffffffffffff1673ffffffffffffffffffffffffffffffffffffffff168152602001908152602001600020819055508373ffffffffffffffffffffffffffffffffffffffff167f4e3883c75cc9c752bb1db2e406a822e4a75067ae77ad9a0a4d179f2709b9e1f660005485604051808381526020018281526020019250505060405180910390a2600191505092915050565b60008082840190508381101515156200034757fe5b8091505092915050565b6113ed80620003616000396000f300606060405260043610610112576000357c0100000000000000000000000000000000000000000000000000000000900463ffffffff16806306fdde031461011d578063095ea7b3146101ab57806318160ddd1461020557806323b872dd1461022e578063313ce567146102a75780633542aee2146102d05780636d019f351461032a57806370a0823114610353578063768ea56a146103a05780638aae995a146103c95780638da5cb5b146103f257806391b43d131461044757806395d89b41146104705780639b314b89146104fe578063a9059cbb14610550578063d648a647146105aa578063dd62ed3e146105d3578063ec8ac4d81461063f578063f2fde38b1461066d578063f7abab9e146106a6575b61011b336106cf565b005b341561012857600080fd5b61013061085d565b6040518080602001828103825283818151815260200191508051906020019080838360005b83811015610170578082015181840152602081019050610155565b50505050905090810190601f16801561019d5780820380516001836020036101000a031916815260200191505b509250505060405180910390f35b34156101b657600080fd5b6101eb600480803573ffffffffffffffffffffffffffffffffffffffff16906020019091908035906020019091905050610896565b604051808215151515815260200191505060405180910390f35b341561021057600080fd5b610218610a1d565b6040518082815260200191505060405180910390f35b341561023957600080fd5b61028d600480803573ffffffffffffffffffffffffffffffffffffffff1690602001909190803573ffffffffffffffffffffffffffffffffffffffff16906020019091908035906020019091905050610a23565b604051808215151515815260200191505060405180910390f35b34156102b257600080fd5b6102ba610d0f565b6040518082815260200191505060405180910390f35b34156102db57600080fd5b610310600480803573ffffffffffffffffffffffffffffffffffffffff16906020019091908035906020019091905050610d14565b604051808215151515815260200191505060405180910390f35b341561033557600080fd5b61033d610d84565b6040518082815260200191505060405180910390f35b341561035e57600080fd5b61038a600480803573ffffffffffffffffffffffffffffffffffffffff16906020019091905050610d8a565b6040518082815260200191505060405180910390f35b34156103ab57600080fd5b6103b3610dd3565b6040518082815260200191505060405180910390f35b34156103d457600080fd5b6103dc610dd8565b6040518082815260200191505060405180910390f35b34156103fd57600080fd5b610405610de6565b604051808273ffffffffffffffffffffffffffffffffffffffff1673ffffffffffffffffffffffffffffffffffffffff16815260200191505060405180910390f35b341561045257600080fd5b61045a610e0c565b6040518082815260200191505060405180910390f35b341561047b57600080fd5b610483610e12565b6040518080602001828103825283818151815260200191508051906020019080838360005b838110156104c35780820151818401526020810190506104a8565b50505050905090810190601f1680156104f05780820380516001836020036101000a031916815260200191505b509250505060405180910390f35b341561050957600080fd5b61053a6004808035906020019091908035906020019091908035906020019091908035906020019091905050610e4b565b6040518082815260200191505060405180910390f35b341561055b57600080fd5b610590600480803573ffffffffffffffffffffffffffffffffffffffff16906020019091908035906020019091905050610ea1565b604051808215151515815260200191505060405180910390f35b34156105b557600080fd5b6105bd611077565b6040518082815260200191505060405180910390f35b34156105de57600080fd5b610629600480803573ffffffffffffffffffffffffffffffffffffffff1690602001909190803573ffffffffffffffffffffffffffffffffffffffff1690602001909190505061107d565b6040518082815260200191505060405180910390f35b61066b600480803573ffffffffffffffffffffffffffffffffffffffff169060200190919050506106cf565b005b341561067857600080fd5b6106a4600480803573ffffffffffffffffffffffffffffffffffffffff16906020019091905050611104565b005b34156106b157600080fd5b6106b96111e0565b6040518082815260200191505060405180910390f35b600080600073ffffffffffffffffffffffffffffffffffffffff168373ffffffffffffffffffffffffffffffffffffffff161415151561070e57600080fd5b600454431015151561071f57600080fd5b600554431115151561073057600080fd5b60003411151561073f57600080fd5b61074f3460065460126008610e4b565b9150610766826000546111ee90919063ffffffff16565b90506008600a0a6305f5e10002811115151561077e57fe5b610788838361120c565b508273ffffffffffffffffffffffffffffffffffffffff163373ffffffffffffffffffffffffffffffffffffffff167f623b3804fa71d67900d064613da8f94b9617215ee90799290593e1745087ad183485604051808381526020018281526020019250505060405180910390a3600360009054906101000a900473ffffffffffffffffffffffffffffffffffffffff1673ffffffffffffffffffffffffffffffffffffffff166108fc349081150290604051600060405180830381858888f19350505050151561085857600080fd5b505050565b6040805190810160405280600d81526020017f417274776f6f6b20546f6b656e0000000000000000000000000000000000000081525081565b60008082148061092257506000600260003373ffffffffffffffffffffffffffffffffffffffff1673ffffffffffffffffffffffffffffffffffffffff16815260200190815260200160002060008573ffffffffffffffffffffffffffffffffffffffff1673ffffffffffffffffffffffffffffffffffffffff16815260200190815260200160002054145b151561092d57600080fd5b81600260003373ffffffffffffffffffffffffffffffffffffffff1673ffffffffffffffffffffffffffffffffffffffff16815260200190815260200160002060008573ffffffffffffffffffffffffffffffffffffffff1673ffffffffffffffffffffffffffffffffffffffff168152602001908152602001600020819055508273ffffffffffffffffffffffffffffffffffffffff163373ffffffffffffffffffffffffffffffffffffffff167f8c5be1e5ebec7d5bd14f71427d1e84f3dd0314c0f7b2291e5b200ac8c7c3b925846040518082815260200191505060405180910390a36001905092915050565b60005481565b600080600073ffffffffffffffffffffffffffffffffffffffff168473ffffffffffffffffffffffffffffffffffffffff1614151515610a6257600080fd5b600260008673ffffffffffffffffffffffffffffffffffffffff1673ffffffffffffffffffffffffffffffffffffffff16815260200190815260200160002060003373ffffffffffffffffffffffffffffffffffffffff1673ffffffffffffffffffffffffffffffffffffffff168152602001908152602001600020549050610b3383600160008873ffffffffffffffffffffffffffffffffffffffff1673ffffffffffffffffffffffffffffffffffffffff1681526020019081526020016000205461122090919063ffffffff16565b600160008773ffffffffffffffffffffffffffffffffffffffff1673ffffffffffffffffffffffffffffffffffffffff16815260200190815260200160002081905550610bc883600160008773ffffffffffffffffffffffffffffffffffffffff1673ffffffffffffffffffffffffffffffffffffffff168152602001908152602001600020546111ee90919063ffffffff16565b600160008673ffffffffffffffffffffffffffffffffffffffff1673ffffffffffffffffffffffffffffffffffffffff16815260200190815260200160002081905550610c1e838261122090919063ffffffff16565b600260008773ffffffffffffffffffffffffffffffffffffffff1673ffffffffffffffffffffffffffffffffffffffff16815260200190815260200160002060003373ffffffffffffffffffffffffffffffffffffffff1673ffffffffffffffffffffffffffffffffffffffff168152602001908152602001600020819055508373ffffffffffffffffffffffffffffffffffffffff168573ffffffffffffffffffffffffffffffffffffffff167fddf252ad1be2c89b69c2b068fc378daa952ba7f163c4a11628f55a4df523b3ef856040518082815260200191505060405180910390a360019150509392505050565b600881565b6000600360009054906101000a900473ffffffffffffffffffffffffffffffffffffffff1673ffffffffffffffffffffffffffffffffffffffff163373ffffffffffffffffffffffffffffffffffffffff16141515610d7257600080fd5b610d7c8383611239565b905092915050565b60065481565b6000600160008373ffffffffffffffffffffffffffffffffffffffff1673ffffffffffffffffffffffffffffffffffffffff168152602001908152602001600020549050919050565b601281565b6008600a0a6305f5e1000281565b600360009054906101000a900473ffffffffffffffffffffffffffffffffffffffff1681565b60055481565b6040805190810160405280600381526020017f414b43000000000000000000000000000000000000000000000000000000000081525081565b600080600086111515610e5d57600080fd5b82600a0a84600a0a811515610e6e57fe5b049050610e9681610e88878961137390919063ffffffff16565b6113a690919063ffffffff16565b915050949350505050565b60008073ffffffffffffffffffffffffffffffffffffffff168373ffffffffffffffffffffffffffffffffffffffff1614151515610ede57600080fd5b610f3082600160003373ffffffffffffffffffffffffffffffffffffffff1673ffffffffffffffffffffffffffffffffffffffff1681526020019081526020016000205461122090919063ffffffff16565b600160003373ffffffffffffffffffffffffffffffffffffffff1673ffffffffffffffffffffffffffffffffffffffff16815260200190815260200160002081905550610fc582600160008673ffffffffffffffffffffffffffffffffffffffff1673ffffffffffffffffffffffffffffffffffffffff168152602001908152602001600020546111ee90919063ffffffff16565b600160008573ffffffffffffffffffffffffffffffffffffffff1673ffffffffffffffffffffffffffffffffffffffff168152602001908152602001600020819055508273ffffffffffffffffffffffffffffffffffffffff163373ffffffffffffffffffffffffffffffffffffffff167fddf252ad1be2c89b69c2b068fc378daa952ba7f163c4a11628f55a4df523b3ef846040518082815260200191505060405180910390a36001905092915050565b60045481565b6000600260008473ffffffffffffffffffffffffffffffffffffffff1673ffffffffffffffffffffffffffffffffffffffff16815260200190815260200160002060008373ffffffffffffffffffffffffffffffffffffffff1673ffffffffffffffffffffffffffffffffffffffff16815260200190815260200160002054905092915050565b600360009054906101000a900473ffffffffffffffffffffffffffffffffffffffff1673ffffffffffffffffffffffffffffffffffffffff163373ffffffffffffffffffffffffffffffffffffffff1614151561116057600080fd5b600073ffffffffffffffffffffffffffffffffffffffff168173ffffffffffffffffffffffffffffffffffffffff161415151561119c57600080fd5b80600360006101000a81548173ffffffffffffffffffffffffffffffffffffffff021916908373ffffffffffffffffffffffffffffffffffffffff16021790555050565b6008600a0a630bebc2000281565b600080828401905083811015151561120257fe5b8091505092915050565b60006112188383611239565b905092915050565b600082821115151561122e57fe5b818303905092915050565b600080611251836000546111ee90919063ffffffff16565b90506008600a0a630bebc20002811115151561126c57600080fd5b8260008082825401925050819055506112cd83600160008773ffffffffffffffffffffffffffffffffffffffff1673ffffffffffffffffffffffffffffffffffffffff168152602001908152602001600020546111ee90919063ffffffff16565b600160008673ffffffffffffffffffffffffffffffffffffffff1673ffffffffffffffffffffffffffffffffffffffff168152602001908152602001600020819055508373ffffffffffffffffffffffffffffffffffffffff167f4e3883c75cc9c752bb1db2e406a822e4a75067ae77ad9a0a4d179f2709b9e1f660005485604051808381526020018281526020019250505060405180910390a2600191505092915050565b60008082840290506000841480611394575082848281151561139157fe5b04145b151561139c57fe5b8091505092915050565b60008082848115156113b457fe5b04905080915050929150505600a165627a7a72305820393be2210ba0fa8abf389c68ee550729e824a81227cd1d04eedce5744f47ce7d0029",
  "source": "pragma solidity ^0.4.17;\n\nimport './ArtwookToken.sol';\n\ncontract CrowdsaleArtwookToken is ArtwookToken {\n    uint256 public constant nativeDecimals = 18;\n\n    /// @notice 60 million BOT tokens for sale\n    uint256 public constant saleAmount = 100 * (10**6) * (10**decimals);\n\n    // Crowdsale parameters\n    uint256 public fundingStartBlock;\n    uint256 public fundingEndBlock;\n    uint256 public initialExchangeRate;\n\n    // Events\n    event TokenPurchase(address indexed purchaser, address indexed beneficiary, uint256 value, uint256 amount);\n\n    /// @notice Creates new CrowdsaleArtwookToken contract\n    /// @param _fundingStartBlock The starting block of crowdsale\n    /// @param _fundingEndBlock The ending block of crowdsale\n    /// @param _initialExchangeRate The exchange rate of Ether to BOT\n    /// @param _presaleAmount The amount of BOT that will be available for presale\n    function CrowdsaleArtwookToken(\n        uint256 _fundingStartBlock,\n        uint256 _fundingEndBlock,\n        uint256 _initialExchangeRate,\n        uint256 _presaleAmount) \n        public \n    {\n        require(_fundingStartBlock >= block.number);\n        require(_fundingEndBlock >= _fundingStartBlock);\n        require(_initialExchangeRate > 0);\n\n        // Converted to lowest denomination of BOT\n        uint256 presaleAmountTokens = _presaleAmount * (10**decimals);\n        require(presaleAmountTokens <= saleAmount);\n\n        assert(nativeDecimals >= decimals);\n\n        fundingStartBlock = _fundingStartBlock;\n        fundingEndBlock = _fundingEndBlock;\n        initialExchangeRate = _initialExchangeRate;\n\n        // Mint the presale tokens, distribute to a receiver\n        // Increase the totalSupply accordingly\n        mintByOwner(owner, presaleAmountTokens);\n    }\n\n    /// @notice Fallback function to purchase tokens\n    function() external payable {\n        buyTokens(msg.sender);\n    }\n\n    /// @notice Allows buying tokens from different address than msg.sender\n    /// @param _beneficiary Address that will contain the purchased tokens\n    function buyTokens(address _beneficiary) public payable {\n        require(_beneficiary != address(0));\n        require(block.number >= fundingStartBlock);\n        require(block.number <= fundingEndBlock);\n        require(msg.value > 0);\n\n        uint256 tokenAmount = getTokenExchangeAmount(msg.value, initialExchangeRate, nativeDecimals, decimals);\n        uint256 checkedSupply = totalSupply.add(tokenAmount);\n\n        // Ensure new token increment does not exceed the sale amount\n        assert(checkedSupply <= saleAmount);\n\n        mintByPurchaser(_beneficiary, tokenAmount);\n        TokenPurchase(msg.sender, _beneficiary, msg.value, tokenAmount);\n\n        owner.transfer(msg.value);\n    }\n\n    /// @notice Shows the amount of AKC the user will receive for amount of exchanged wei\n    /// @param _weiAmount Exchanged wei amount to convert\n    /// @param _exchangeRate Number of BOT per exchange token\n    /// @param _nativeDecimals Number of decimals of the token being exchange for BOT\n    /// @param _decimals Number of decimals of BOT token\n    /// @return The amount of BOT that will be received\n    function getTokenExchangeAmount(\n        uint256 _weiAmount, \n        uint256 _exchangeRate,\n        uint256 _nativeDecimals, \n        uint256 _decimals) \n        public\n        pure \n        returns(uint256) \n    {\n        require(_weiAmount > 0);\n\n        uint256 differenceFactor = (10**_nativeDecimals) / (10**_decimals);\n        return _weiAmount.mul(_exchangeRate).div(differenceFactor);\n    }\n\n    /// @dev Function to allow crowdsale participants to mint tokens when purchasing\n    /// @param _to Address to mint the tokens to\n    /// @param _amount Amount of tokens that will be minted\n    /// @return Boolean to signify successful minting\n    function mintByPurchaser(address _to, uint256 _amount) private returns (bool) {\n        return mint(_to, _amount);\n    }\n}\n",
  "sourcePath": "/Users/denny/github.com/artwook/contracts/contracts/tokens/CrowdsaleBodhiToken.sol",
  "compiler": {
    "name": "solc",
    "version": "0.4.19+commit.c4cbbb05.Emscripten.clang"
  },
  "schemaVersion": "1.0.1",
  "updatedAt": "2018-02-07T07:17:29.965Z"
}